:1019C300E4904002F0A37403F0121BA81219EE1264
:1019D3000012121A8012001112125D121718E490ED
:0B19E3004001F0904001E004F080F8AB
:03000000021B6B75
:0C1B6B00787FE4F6D8FD7581510219C3A3
:10171800E4904008F0904005E004F07B007A0079FE
:1017280022121055EF60EE904006E525F0A3E5265D
:10173800F0E525C39401400280DBE52570D7904091
:0B17480008E004F0AF261212C780CAB0
:10145800AB05EF603A74017E00A803088005C3332A
:10146800CE33CED8F94211EE4210E51524FFFFE540
:101478001434FFFEE51334FFFDE51234FFFCEB25C1
:10148800E025E02415F582E43440F5830201DDAF60
:101498000374017E00A807088005C333CE33CED875
:0D14A800F9F4FFEEF4FEEF5211EE521022A7
:03000B0002116976
:10116900C0E0C0F0C083C082C0D075D000C000C04C
:1011790001C002C003C004C005C006C007C28C7507
:101189008A44758CCBD28CE5152401FFE43514FE15
:10119900E43513FDE435128F158E148D13F5129075
:1011A9004070E004F0E51130E018E515540FFFE454
:1011B900FEFDFCFBFAF9F8C312018A70057F0112E2
:1011C900000ED007D006D005D004D003D002D0013C
:0D11D900D000D0D0D082D083D0F0D0E03252
:101A8000E4F515F514F513F512F510F511E5895483
:0E1A9000F04401F589758A44758CCBD28C2206
:0100110022CC
:10186D00AB07AA06ED6016EA5407900D4AF0EBA3FC
:10187D00F0900D48E04420F0900D4A800FEB547F1E
:10188D00900D49F0900D48E054DFF0A3E04480F056
:05189D00E0547FF02281
:101A9E00AB07AA06ED6008EF547F900D4CF022EADA
:0A1AAE005403900D4DF0EBA3F0225D
:1019EE00C2AFC2ACD2A8D2AAD2A9C2AB9002107416
:1019FE00FFF0A3F014900210F074F7A3F0A374FF9D
:061A0E00F0A3F0D2AF22AC
:03000300021A39A5
:0D1A3900C0E0C083C082C0D075D000C007DF
:0C1A4600900207E030E00590020BE0F099
:0B1A5200D007D0D0D082D083D0E0328B
:030013000216D6FC
:1016D600C0E0C0F0C083C082C0D075D000C000C0DA
:0D16E60001C002C003C004C005C006C0075B
:0A16F300900208E030E303120B53ED
:1016FD00D007D006D005D004D003D002D001D00041
:0B170D00D0D0D082D083D0F0D0E032EA
:040006007F41DFFE59
:01000A0022D3
:0D1B5D007F147E20DEFEDFFA000000000095
:011B6A002258
:091B8E007F4E7E55DEFEDFFA00F9
:011B9700222B
:0F1B2E007F047E557DC5DDFEDEFADFF600000088
:011B3D002285
:0F1B3E007F0E7ECB7DECDDFEDEFADFF6000000D1
:011B4D002275
:0100120022CB
:100B5300900B01E0F542A3E0F543A3E0F544A3E0E5
:100B6300F545A3E0F546900B0CE0F547E54230E090
:100B73002E90401DE030E727900B21E054C06440E5
:100B8300701D90100DE04401F0121A14EF70107DE7
:100B9300BEFCFF12178E7B01E4FD7F01120DBAE547
:100BA3004230E113121BB090401DE030E7097D0194
:100BB3007C007F01121B1DE54330E002D203E543B5
:100BC30030E102D202E54330E202D204E54330E3EE
:100BD30002D201E54330E402D200E5475403600545
:100BE3007F01120F1EE5447008E5457004E5466079
:100BF30017904010E544F0A3E545F0A3E546F07BEC
:100C030004E4FD7F01120DBA900B01E542F0A3E568
:100C130043F0A3E544F0A3E545F0A3E546F0900BCC
:040C23000CE547F0A5
:010C270022AA
:011BBA002208
:10125D007E007F107D007B017A40795012026790ED
:10126D000D01E4F0900D60F0A3E04401F0900B014E
:10127D0074FFF0A3F0A3F0A3F0A3F0A3F0900B0D77
:10128D00F0900D3F7403F0A3741FF0A374FFF0A34F
:10129D00F0A3F0A3E4F0900D6DF0A37403F0121B16
:1012AD00BAE4904010F0A3F0A3F0A3F0F0A3F01275
:0A12BD000FC21217C8E4FF020F1E53
:1012C7008F27E52730E009121393EF60031211E629
:0D12D700E52730E103121690E52730E22DE7
:1012E400E4F52874102528F582E43440F583E0FD04
:1012F4006012AF2812132D74102528F582E43440AF
:0D130400F583E4F00528E528C3940340D6E6
:10131100E52730E316904013E0FEA3E0FF121753D8
:0C132100C2AFE4904013F0A3F0D2AF2262
:101B1D00904013E04CF0A3E04DF07B08E4FD020D86
:011B2D00BAFD
:020F1E008F48FA
:100F2000900B61E0FF540324FE600804700A7549C9
:100F30000180087549028003E4F549EF1313540357
:100F400024FE600804700A754A018008754A028010
:100F500003E4F54AE5497004E54A6045E549654A18
:100F6000603F90401DE020E7584480F0904052E000
:100F700004F07D207C00AF48121B1D90401DE05402
:100F8000F0F0E549900D65600CE054FEF090401DD6
:100F9000E04401F022E04401F090401DE04402F002
:100FA0002290401DE030E719547FF090100DE0547E
:100FB000FEF0904053E004F07D107C00AF48121B1F
:010FC0001D13
:010FC100220D
:03000E00020F1EC0
:100CFA000801912C0802D0C80803C096C8DC212834
:100D0A000801912C0802D0FA0803C0C8C8DC2132B5
:100D1A000801912C0802D12C0803C0C8C8DC213C68
:100D2A000801912C0802D12C0803C0FA0804B0B4B7
:100D3A0008064087C8DC213C0801912C0802D0FA39
:100D4A000803C0C80804B09608064078C8DC2132F7
:100D5A000801912C0802D12C0803C0FA0804B0C873
:100D6A0008064096C94021280801912C0802D12C76
:100D7A000803C12C0804B0F0080640B4C940213069
:100D8A000801912C0802D12C0803C12C0804B12CAB
:100D9A00080640E1C990212D0801912C0802D12CA6
:100DAA000803C12C0804B12C0806412CC990213C27
:1017C800900D1074FFF0A3F0A3F0A3F090100CE0BC
:1017D8004402F01215FF90401C7460F0E490400A37
:1017E800F0A3F0D208D206D2079040237402F0E4A6
:0817F80090401DF0FF02050DF9
:1015FF00900D1874FFF000E4F0A374FFF000E4F016
:10160F00A374FFF000E4F0A374FFF000E4F0904047
:10161F002AF090401EF0A3F0A3F0A3F090402374A3
:10162F0002F0751A60E490404DF0904024F0A3F062
:09163F00904028F0A3F0C20A2239
:101753008E298F2AE52A30E0057FC812086FE52A13
:1017630030E1057FCD12086FE52A30E5057FC91208
:10177300086FE52A30E406121B771215FFE52A30BD
:0B178300E608AF1A12086F751A60220A
:10169000900D187420F000E4F090401DE030E73524
:1016A00090402AE0702F850982850883A3E0FFC45B
:1016B00054077003020A63850982850883A3E0FF4B
:1016C000C4131313540130E009121800EF6006022E
:0616D00015B21213F9220D
:10132D008F298D2AE5297017E52A30E40990400BA5
:10133D00F07FCA12086FE52A30E74A7FCD8043E57A
:10134D00296401702DE52A30E01B90100CE054FE4D
:01135D00F09F
:0F135E00E4F52B121B3E052BE52BC3940840F43E
:10136D007FC912086FE52A30E11B90400BF07FCA50
:10137D008010E529B4020EE52A30E20990400BF009
:06138D007FCA12086F2266
:100A6300850982850883E0541F1202070B52010B8C
:100A730052020B52030B52040B52050B52060AAFE0
:100A8300070AB3080AC6090AEA0A0AFB0B0B520C47
:100A93000B0C0D0B52100B1D110B22120B27130BFA
:100AA30038140B3E150B421600000B467FD38067AC
:100AB300904023E0C3940240057F10020B4F7F0454
:100AC300020B4F3006107F01121AB8EF7003020BAE
:100AD300527F02021AB8904023E0C3940240047F7D
:100AE3001080027F048065904023E0C39402400499
:100AF3007F1080027F048054904023E0C39402401F
:100B0300047F1080027F0480437F03121A5DEF701D
:100B1300047FCA80027FCB02086F1218D780191294
:100B23001BBB8014904023E0C3940240047F1080D9
:100B3300027F04801712150F0207517F10800D7F6B
:100B4300108009904023E0B402057F10121A5D2241
:1013F900850982850883E0541F12020714570114D6
:101409002102144103145704145705144406144BBC
:1014190007144F0F000014527FCE12086F90402717
:10142900E060047FCF800E7FD112086F2009047F0E
:10143900D280027FD002086F02196B120E717F12DF
:0F14490080097F1080050216487F10121A5D225D
:1015B200850982850883E0541F12020715FE011572
:1015C200FE0215EF0315F10415FE0515F30615FECF
:1015D2000715F50815FE0915F70A15FE0B15FE0C81
:1015E20015FE0D15FE0E15FE0F000015F980088080
:0D15F200068004800280007F10121A5D2226
:10164800752901AB0BAA0A8B828A83A3E0547FF029
:101658008B828A83E054E0440FF079018509828502
:101668000883A3A31201C18B828A83A3A31201DD7D
:10167800E95407C454F0FF8B828A83A3E0548F4F48
:07168800F0200603121563B8
:01168F002238
:0F1B4E00E4FF12193D900D157401F000E4F02230
:1010E100850B82850A83E054E0440DF0A3E0548F20
:1010F100F0A208E4335401FF850B82850A83A3E043
:1011010054FE4FF0A206E4335401C43354E0FF858A
:101111000B82850A83E054DF4FF0904023E05403B3
:10112100C4333354C0FF850B82850A83E0543F4F9B
:10113100F0A3E0547FF012096FEF7009121B4E12F9
:1011410015FF7F0022900D1874FFF000E4F0A374E6
:10115100FFF000E4F0A374FFF000E4F0900D1474CC
:0811610010F000E4F07F012210
:10156300A208E4335401FF850B82850A83A3E05468
:10157300FE4FF0A206E4335401C43354E0FF850B5D
:1015830082850A83E054DF4FF0904023E05403C484
:10159300333354C0FF850B82850A83E0543F4FF0F9
:0F15A30012096FEF70061210E17F00227F012204
:101A5D00EF541FFF850B82850A83E054E04FF0A3FE
:101A6D00E0548FF0850B82850A83A3E0547FF0123A
:031A7D00156322CC
:1018000085082985092A852A82852983A3A3A3E03F
:10181000C4131313540120E0087F10121A5D7F00D7
:1018200022AA29A92A7B01A80DAC0C7D017E007F8C
:061830001E1200E67F011C
:01183600228F
:10075100850A2B850B2C85082D85092E850F828511
:100761000E83A3A3A3E05401FF850F82850E83A30B
:10077100A3E0FD7C00EFFEE42DFFEC3EFED3EF9401
:100781001AEE940040067E007F1A80008E298F2A7F
:10079100852C82852B83A3E04480F0850F82850E12
:1007A10083E0541FFF852C82852B83E054E04FF0BA
:1007B100E52A2405FFE43529FEEF7802CEC313CEE6
:1007C10013D8F95407C454F0FF852C82852B83A3D9
:1007D100E0548F4FF0852C82852B83A3A3A3E044A3
:1007E10080F0852C82852B83A3A3A3E05487F08519
:1007F1002C82852B83A3A3A3E054FBF0850F828574
:100801000E83A3A3A3E05401FF852C82852B83A330
:10081100A3A3E054FE4FF0850F82850E83A3A3E0CE
:10082100852C82852B83A3A3F07E007F1A7D00E5B2
:100831002C2404FBE4352BFAA9037B01120267AED9
:1008410029AF2AE50F2404FDE4350EFAA9057B0141
:10085100E52C2404FDE4352BA805FC7D011200E6FE
:0D086100904020E529F0A3E52AF012156370
:01086E002267
:10196B00850982850883A3A31201C1EF54F0FFEF11
:10197B0024B0700C121B2E121B2E121B2E121B2EA0
:0B198B0090402AE004F0E0700204F03D
:01199600222E
:10086F0090401CE0F52CEFF012020708A1C808AF6A
:10087F00C9089CCA08CCCB08D7CD0906CE0921CF11
:10088F00094DD0091CD10962D30000096EE4FF1293
:10089F00193D90401C74C8F0900D15740102095D4C
:1008AF00121B771215FFC2097F2C7E01121BA07F2E
:1008BF00647E00121B9890100CE04401F090401CD5
:1008CF0074CBF0E4904026F090401C74CDF0121AD7
:1008DF00E6904026E004F012096FEF6007900D14C8
:1008EF007410806A121B77904026E0C39432506FC9
:1008FF00900D1474808057900D187410F000E4F070
:10090F00120293300A59900D1A740480417F040229
:10091F001A5D7F03121A5DEF6045121B2E121B2EFC
:10092F00121B2E904028E0FEA3E0FF121BA0904068
:10093F0024E0FEA3E0FF121B987F06121A5D904081
:10094F001C74D0F0D209300A16900D167404F00002
:0F095F00E4F022121AE612156390401CE52CF00A
:01096E002266
:101AE600A80BAC0A7D017B017A40792D7E007F1E12
:031AF6000200E605
:10029300850982850883E0C413135403FFC39402C2
:1002A3005005904023EFF0850982850883A3A312AC
:1002B30001C1780812019BE4FEFDFC78101201AE27
:1002C300C004C005C006C007850982850883A3A3AF
:1002D3001201C1E4FEFDFC78181201AED003D00276
:1002E300D001D00012017DC004C005C006C007853F
:1002F3000982850883A3A31201C1781012019BE42C
:10030300FEFDFC78081201AED003D002D001D0006C
:1003130012017DC004C005C006C007850982850897
:1003230083A3A31201C1781812019BE4FEFDFCD044
:1003330003D002D001D00012017D8F198E188D17C2
:100343008C16781C12019BEF5407FF8F2DE52D604F
:1003530026904022E0FFE52DD39F40030204ECAF3B
:1003630019AE18AD17AC16781A12019BEF5401FFA2
:10037300E4FEFDFCEF60030204ECE52D25E025E03F
:10038300242BF582E43440F5831201C1780812016D
:100393009BE4FEFDFC78101201AEC004C005C0064C
:1003A300C007E52D25E025E0242BF582E43440F554
:1003B300831201C1E4FEFDFC78181201AED003D014
:1003C30002D001D00012017DC004C005C006C007E1
:1003D300E52D25E025E0242BF582E43440F5831256
:1003E30001C1781012019BE4FEFDFC78081201AEF6
:1003F300D003D002D001D00012017DC004C005C0DB
:1004030006C007E52D25E025E0242BF582E43440E2
:10041300F5831201C1781812019BE4FEFDFCD003A1
:10042300D002D001D00012017D8F398E388D378CE8
:1004330036781E12019BEF5403FFE4FEFDFC12020B
:100443002D045800000000045400000003000004C1
:100453005CD20A8007C20A80030204EC300A29AF87
:1004630019AE18AD17AC16780912019BEE5407FEAE
:100473008E308F31E519547FFFE4F52E8F2FE53948
:10048300FFE4F5348F35804CAF39AE38AD37AC3639
:10049300780A12019BEE5403FEE48E308F31AF19BC
:1004A300AE18AD17AC16780A12019BEE5403FE8EFC
:1004B3002E8F2FE5185403FE8E32851933E539FF4D
:1004C300E5385403FEE4FDFC7B0AFAF9F812012E29
:1004D3008E348F35D3E52F9535E52E9534500AE5C7
:1004E300339535E53295344006E4904027F0229069
:1004F3004024E530F0A3E531F0904028E52EF0A349
:09050300E52FF09040277401F08F
:01050C0022CC
:101AB800EF24FE600D04700C7F03121A5DEF7004B2
:071AC800FF22C2067F01228C
:02050D008F223B
:10050F00E522C39403400302060D9040227404F0C9
:10051F00E4F523E522C454F024FAF582E4340CF513
:10052F008375F004E5231201E91201CD7808120159
:10053F009BE4FEFDFC78101201AEC004C005C0069E
:10054F00C007E522C454F024FAF582E4340CF58395
:10055F0075F004E5231201E91201CDE4FEFDFC78EC
:10056F00181201AED003D002D001D00012017DC00D
:10057F0004C005C006C007E522C454F024FAF58272
:10058F00E4340CF58375F004E5231201E91201CD73
:10059F00781012019BE4FEFDFC78081201AED00327
:1005AF00D002D001D00012017DC004C005C006C02A
:1005BF0007E522C454F024FAF582E4340CF5837570
:1005CF00F004E5231201E91201CD781812019BE422
:1005DF00FEFDFCD003D002D001D00012017DE52337
:1005EF0025E025E0242FF582E43440F5831201DD68
:1005FF000523E523640460030205220207029040ED
:10060F00227406F0E4F523E52275F018A424E2F530
:10061F0082E4340CF58375F004E5231201E912012D
:10062F00CD780812019BE4FEFDFC78101201AEC0DC
:10063F0004C005C006C007E52275F018A424E2F532
:10064F0082E4340CF58375F004E5231201E91201FD
:10065F00CDE4FEFDFC78181201AED003D002D0011C
:10066F00D00012017DC004C005C006C007E5227589
:10067F00F018A424E2F582E4340CF58375F004E558
:10068F00231201E91201CD781012019BE4FEFDFC4B
:10069F0078081201AED003D002D001D00012017D34
:1006AF00C004C005C006C007E52275F018A424E2F7
:1006BF00F582E4340CF58375F004E5231201E91299
:1006CF0001CD781812019BE4FEFDFCD003D002D0BF
:1006DF0001D00012017DE52325E025E0242FF582CE
:1006EF00E43440F5831201DD0523E523640660033E
:1006FF00020616904022E05407C454F0FF90402E9B
:10070F00E0548F4FFFF0A208E4335401FEEF54FE84
:10071F004EF0904023E05403C4333354C0FF904055
:10072F002DE0543F4FFFF0A206E4335401C433547D
:10073F00E0FEEF54DF4EF054E04401F0A3E0547FAD
:01074F00F0B9
:010750002286
:081B9800A20AE433FD02186DFE
:081BA000A20AE433FD021A9EC3
:031BB7007F012289
:1018D700850F82850E83E054E04401F0A3A3A3E0C3
:1018E70054FEF0850F82850E83A3A37418F07E0043
:1018F700FF7D00E50F2404FBE4350EFAA9037B0105
:0319070002026772
:100E7100850982850883A3A31201C1780812019B09
:100E8100E4FEFDFC78101201AEC004C005C006C02E
:100E910007850982850883A3A31201C1E4FEFDFC35
:100EA10078181201AED003D002D001D00012017D1A
:100EB100C004C005C006C007850982850883A3A3B5
:100EC1001201C1781012019BE4FEFDFC78081201A9
:100ED100AED003D002D001D00012017DC004C00504
:100EE100C006C007850982850883A3A31201C178C2
:100EF1001812019BE4FEFDFCD003D002D001D0000A
:100F010012017D8F198E188D178C16781912019B7D
:0D0F1100EF5401FFEF60037F01227F0022FB
:011BBB002207
:011BBC002206
:011BBD002205
:10150F00850F82850E83E054E0440CF0A3A3A3E083
:10151F0054FEF0850F82850E83A3A37404F0250F6C
:10152F00F582E4350EF58374FFF0E50F2405F5829F
:10153F00E4350EF58374FFF0E50F2406F582E435EC
:10154F000EF58374FFF0E50F2407F582E4350EF5F1
:04155F0083E4F0220F
:101ACF00EFC394A04005EF9401FF22EFD3945A4047
:071ADF00037F5A227F32222F
:0B1B83008F1A7D407C00E4FF021B1D58
:10183700AB077401A803088002C333D8FCFA900DE4
:101847001BF000E4F075F002EB900D321201E9EDA8
:10185700F075F002EB900D331201E9ECF0900D17E3
:06186700EAF000E4F022AB
:10190A00AD0774017E00A805088005C333CE33CE27
:10191A00D8F9FF900B16E0FBEF5B6014AF0574017A
:10192A00A807088002C333D8FC900B06F07F012277
:03193A007F002209
:10178E00AB07EB2403FF7401A807088002C333D80C
:10179E00FCFA900D1BF000E4F075F002EB900D38A2
:1017AE001201E9EDF075F002EB900D391201E9EC42
:0A17BE00F0900D17EAF000E4F022AD
:1018A200AD07ED2403FC74017E00A804088005C383
:1018B20033CE33CED8F9FF900B16E0FBEF5B60120C
:1018C2007401A804088002C333D8FC900B06F07F91
:0518D20001227F00224D
:101AF900AD07AC067F021218377F0212190AEF6090
:021B0900F822C0
:101B0B00AD07AC067F0212178E7F021218A2EF6090
:021B1B00F822AE
:100FC2007E007F1E7D007B017A4079AE120267753A
:100FD20008407509AE7E007F1E7D007B017A407954
:100FE200CC120267750A40750BCC7E007F1E7D0015
:100FF2007B017A407971120267750C40750D717E22
:10100200007F1E7D007B017A40798F120267750E88
:1010120040750F8F900D09E054FEF0900D08E054DA
:10102200FEF0900D477441F0E49040EBF09040AD3B
:1010320074FFF09040EAF0E490400FF090400EF020
:1010420090400CF0A3F0C205C203C202C204C20166
:03105200C20022B7
:0C1B7700E49040EBF09040AD74FFF022D1
:10139300900E02E0547FF0E0548FF0900C02E05482
:1013A3000EFF900E02E054F14FF0A208E433540113
:1013B300FFE054FE4FF0900E01E0543F4440F0A292
:1013C30006E4335401C43354E0FFE054DF4FF0E04C
:1013D30054E04401F0900B27E05405FFBF05047F60
:1013E3000180027F00EF60ED900D09E04401F0E021
:0613F30054FEF07F012210
:1011E600900C02E0FFC45407700D900C01E0541FF0
:1011F600FFBF0D03121B77300204C20280213000AC
:101206001990400FE0FF540FFEBE0F06EF54F0F0AA
:10121600800D90400FE004F0800512000680D83063
:101226000003C200229040ADE0FF900C02E0C31321
:101236005407FE6F60209040ADEEF0A809AC087D23
:10124600017B017A0C79017E007F1E1200E67B028B
:06125600E4FDFF120DBAD9
:01125C00226F
:101A1400900C02E0FFC454077018900C01E0541FAE
:101A2400FEBE010EEFC31354079040EAF0D2057FC7
:051A340001227F0022E9
:10096F00E4F52F904023E0C3940250047F048002EB
:10097F007F038F30850B82850A83A3E0C4540770F1
:10098F0010850B82850A83E0541FFFBF0D03121BD6
:10099F00779040EBE0540725E0FF850B82850A83B3
:1009AF00A3E054F14FF0AA0AA90B7B0178017C0E4A
:1009BF007D017E007F1E1200E6052FE52FD39530B7
:1009CF005019E52F9401400690400EE004F0900D71
:1009DF0009E04401F0E054FEF080139040EBE00496
:1009EF00F0E05407F0900D477441F07F0022300380
:1009FF0004C203801B3001F690400FE0FF54F0FE5D
:100A0F00BEF006EF540FF0800790400FE02410F077
:070A1F00300104C20180A2B6
:100A2600E4F531300504C205800C121B5D0531E585
:0D0A360031C3940B40EDE531C3940B5085A6
:100A43009040EAE0FFA3E06F60030209C89040EB27
:0F0A5300E004F0E05407F0900D477441F07F018C
:010A62002271
:10193D008F2F90400DE004F0E49040EBF0900D08F7
:08194D00E04401F0E054FEF05B
:10195500E4F530300403C20422121B8E0530E53055
:05196500C3940540EEF3
:01196A00225A
:071BB00090400CE004F0225C
:081BA800E4904004F00214B5C2
:061055008B278A2889297F
:10105B008551828550831201F5EA494B7002FF22BC
:10106B00C2AF8551828550831201F5AE02AF018F5D
:10107B00828E831201F58551828550831201FED237
:10108B00AF8F828E83A3A3A3E0AB27AA28A92990B5
:10109B00000312010C8F828E83E5822404F582E417
:1010AB003583F583E090000412010C7B007A007904
:1010BB00008F828E831201FE8F828E83A3A3A37473
:1010CB0001F08F828E83E5822404F582E43583F56B
:0510DB0083E4F07F0139
:0110E00022ED
:060DBA008F4B8D4C8B4DA8
:100DC000E54B7002C2AF85504E85514F854F8285ED
:100DD0004E831201F5EA494B6035854F82854E837B
:100DE0001201F5AF018A4E8F4F8F82854E83A3A3E8
:100DF000A3E0B54CD78F82E5822404F582E4354E1A
:100E0000F583E0B54DC6E54B7002D2AF7F002212EC
:100E10001997BF010F904004E004F0E54B7002D237
:100E2000AF7F0022EF75F005A424ECF582E4344096
:100E3000AF82FE7B007A007900F5831201FE8F827B
:100E40008E83A3A3A3E54CF08F828E83E5822404D6
:100E5000F582E43583F583E54DF0AA06A9070B85F5
:100E60004F82854E831201FEE54B7002D2AF7F01A7
:010E7000225F
:060C28008F1B8D1C8B1DCB
:100C2E00E51B7002C2AF85501E85511F851F828540
:100C3E001E831201F5EA494B6035851F82851E839E
:100C4E001201F5AF018A1E8F1F8F82851E83A3A30B
:100C5E00A3E0B51CD78F82E5822404F582E4351E0D
:100C6E00F583E0B51DC6E51B7002D2AF7F002212E0
:100C7E001997BF010F904004E004F0E51B7002D2FB
:100C8E00AF7F0022EF75F005A424ECF582E434402A
:100C9E00AF82FE7B007A007900F5831201FE8F820F
:100CAE008E83A3A3A3E51CF08F828E83E58224049A
:100CBE00F582E43583F583E51DF0855182855083F9
:100CCE001201F5AD018A1E8D1FAA06A9077B0185AB
:100CDE0051828550831201FEAA1EA9058F828E8332
:0B0CEE001201FEE51B7002D2AF7F0177
:010CF90022D8
:10199700E4FFEF75F005A424EFF582E43440F58306
:1019A700E0B40111EF75F005A424EFF582E43440AB
:0B19B700F583E4F0220FBF10D97F0180
:0119C2002202
:1014B500E4FF7B007A007900EF75F005A424ECF5D4
:1014C50082E43440F5831201FEEF75F005A424EFA4
:1014D500F582E43440F5837401F0EF75F005A4243A
:1014E500F0F582E43440F583E4F00FBF10C47B00CF
:1014F5007A00790090413C1201FE90413F7401F061
:09150500E4A3F075504175513C5E
:01150E0022BA
:10001600E709F608DFFA8046E709F208DFFA803ECC
:1000260088828C83E709F0A3DFFA8032E309F608B9
:10003600DFFA8078E309F208DFFA807088828C8321
:10004600E309F0A3DFFA806489828A83E0A3F608D5
:10005600DFFA805889828A83E0A3F208DFFA804CAF
:1000660080D280FA80C680D4806980F28033801086
:1000760080A680EA809A80A880DA80E280CA8033EF
:1000860089828A83ECFAE493A3C8C582C8CCC58367
:10009600CCF0A3C8C582C8CCC583CCDFE9DEE78037
:1000A6000D89828A83E493A3F608DFF9ECFAA9F0B6
:1000B600EDFB2289828A83ECFAE0A3C8C582C8CC0C
:1000C600C583CCF0A3C8C582C8CCC583CCDFEADE25
:1000D600E880DB89828A83E493A3F208DFF980CC87
:1000E60088F0EF60010E4E60C388F0ED2402B40480
:1000F6000050B9F582EB2402B4040050AF23234527
:06010600822390006673E5
:10010C00F8BB010DE58229F582E5833AF583E8F029
:10011C00225006E92582C8F622BBFE05E92582C8D5
:02012C00F222BD
:10012E00E88FF0A4CC8BF0A42CFCE98EF0A42CFC70
:10013E008AF0EDA42CFCEA8EF0A4CDA8F08BF0A4EE
:10014E002DCC3825F0FDE98FF0A42CCD35F0FCEB4D
:10015E008EF0A4FEA9F0EB8FF0A4CFC5F02ECD3912
:0F016E00FEE43CFCEAA42DCE35F0FDE43CFC227F
:0D017D00EF4BFFEE4AFEED49FDEC48FC2281
:10018A00EB9FF5F0EA9E42F0E99D42F0E89C45F0CB
:01019A002242
:10019B00E8600FECC313FCED13FDEE13FEEF13FF42
:0301AB00D8F12266
:1001AE00E8600FEFC333FFEE33FEED33FDEC33FCAF
:0301BE00D8F12253
:0C01C100E0FCA3E0FDA3E0FEA3E0FF22B1
:1001CD00E493FC740193FD740293FE740393FF2278
:0C01DD00ECF0A3EDF0A3EEF0A3EFF02295
:0C01E900A42582F582E5F03583F5832221
:0901F500E0FBA3E0FAA3E0F9220B
:0901FE00EBF0A3EAF0A3E9F02202
:10020700D083D082F8E4937012740193700DA3A386
:1002170093F8740193F5828883E47374029368609A
:06022700EFA3A3A380DF9A
:10022D00D083D082E4937012740193700DA3A393C5
:10023D00F8740193F5828883E4737402936C7012E1
:10024D007403936D700C7404936E70067405936F44
:0A025D0060DDA3A3A3A3A3A380CA3E
:10026700EF4E6012EF60010EEDBB010B89828A83AE
:10027700F0A3DFFCDEFA2289F05007F709DFFCA9BB
:0C028700F022BBFEFCF309DFFCA9F02212
:00000001FF
